:1000000012C019C018C017C016C015C014C013C044
:1000100012C011C010C00FC00EC00DC00CC00BC06C
:100020000AC009C008C011241FBECFE5D4E0DEBF5E
:10003000CDBF2AD098C0E4CFC09885B38C7F85BB54
:10004000C09A0895C09885B38C7F85BBA89AC09A42
:100050000895C09885B38C7F85BBA99AC09A0895EE
:10006000C09885B3837F85BBC09A0895C09885B337
:10007000837F85BBAA9AC09A0895C09885B3837F71
:1000800085BBAB9AC09A0895CF93DF93B89A8EEF51
:1000900088BB8FE084BB80EF85BBC8ECD0E0EDDF90
:1000A00020E137E2CE010197F1F721503040D1F73E
:1000B000D7DF28E833E1CE010197F1F72150304036
:1000C000D1F7D4DF28E833E1CE010197F1F72150D1
:1000D0003040D1F7C5DF28E833E1CE010197F1F7D1
:1000E00021503040D1F7C2DF28E833E1CE0101973B
:1000F000F1F721503040D1F7B3DF20E137E2CE01F4
:100100000197F1F721503040D1F7A3DF20E137E22A
:10011000CE010197F1F721503040D1F79ADF20E16D
:1001200037E2CE010197F1F721503040D1F791DF4E
:1001300020E137E2CE010197F1F721503040D1F7AD
:1001400081DF20E137E2CE010197F1F72150304005
:10015000D1F772DF20E137E2CE010197F1F72150AC
:0A0160003040D1F79CCFF894FFCF98
:00000001FF
