:1000000012C019C018C017C016C015C014C013C044
:1000100012C011C010C00FC00EC00DC00CC00BC06C
:100020000AC009C008C011241FBECFE5D4E0DEBF5E
:10003000CDBFB7D0E5C0E4CF28E833E148EC50E0CD
:10004000CA010197F1F721503040D1F7089585B3E7
:100050008C7F85BB089585B38C7F85BBA89A089556
:1000600085B38C7F85BBA99A089585B3837F85BBB3
:10007000089585B3837F85BBAA9A089585B3837F4E
:1000800085BBAB9A0895C098C09A85B38C7F85BB19
:10009000A99A85B3837F85BB28E833E148EC50E01B
:1000A000CA010197F1F721503040D1F785B38C7F19
:1000B00085BB85B3837F85BBAA9A28E833E148ECEA
:1000C00050E0CA010197F1F721503040D1F785B3D4
:1000D0008C7F85BBA89A85B3837F85BB28E833E1F5
:1000E00048EC50E0CA010197F1F721503040D1F7B8
:1000F00085B38C7F85BB85B3837F85BBAB9A28E8AE
:1001000033E148EC50E0CA010197F1F7215030404B
:10011000D1F70895C098C09A85B38C7F85BBA89A03
:1001200085B3837F85BB28E833E148EC50E0CA0102
:100130000197F1F721503040D1F785B38C7F85BB13
:1001400085B3837F85BBAA9A28E833E148EC50E069
:10015000CA010197F1F721503040D1F785B38C7F68
:1001600085BBA99A85B3837F85BB28E833E148EC3A
:1001700050E0CA010197F1F721503040D1F785B323
:100180008C7F85BB85B3837F85BBAB9A28E833E141
:1001900048EC50E0CA010197F1F721503040D1F707
:1001A00008950F931F93CF93DF93B89A8EEF88BB78
:1001B000C09A8FE084BB80EF85BB00E010E0C8EC04
:1001C000D0E003301105C4F020E137E2CE01019701
:1001D000F1F721503040D1F756DF55DF54DF20E2F0
:1001E0003EE4CE010197F1F721503040D1F700E015
:1001F00010E00330110544F78DDF0F5F1F4FE1CF93
:04020000F894FFCFA0
:00000001FF
